:020000040800F2
:100000000000022099360008E9360008E9360008A9
:10001000E9360008E9360008E9360008000000006B
:10002000000000000000000000000000E9360008A9
:10003000E936000800000000E93600080722000841
:10004000E9360008E9360008E9360008E936000814
:10005000E9360008E9360008FD22000803230008FD
:10006000092300080F23000815230008E9360008BB
:10007000E9360008E9360008E9360008E9360008E4
:10008000E9360008E9360008E9360008E9360008D4
:10009000E9360008E9360008E93600081B230008A5
:1000A000591E0008711D00086D1E0008951D0008EE
:1000B000A91D0008BD1D0008D11D0008E936000873
:1000C000E9360008E9360008E9360008E936000894
:1000D000E9360008753000088D300008A9300008A6
:1000E00031230008E9360008E9360008811E0008BF
:1000F000211E0008951E0008451E0008E93600086C
:10010000E9360008E9360008E51D0008E936000870
:10011000C5300008DD300008F91D00080D1E00087C
:10012000E9360008E9360008E9360008E936000833
:10013000E9360008E9360008E9360008E936000823
:10014000E9360008E9360008E9360008E936000813
:10015000E9360008E9360008E9360008F5300008FD
:10016000E9360008E9360008E9360008E9360008F3
:10017000E9360008E9360008E9360008000000000A
:08018000E9360008E936000829
:1001880053B94AB9002908BF00281CBF4FF0FF31F6
:100198004FF0FF3000F00CB8ADF1080C6DE904CE5B
:1001A80003F0FCFCDDF804E0DDE9022304B070474D
:1001B800704700BF10B5054C237833B9044B13B111
:1001C8000448AFF300800123237010BD8C00002089
:1001D80000000000683E000808B5034B1BB1034946
:1001E8000348AFF3008008BD000000009000002025
:1001F800683E000808B5074806224FF4165103F078
:1002080089F9BDE80840044840F2DC52432100F077
:100218005DB900BF58030020A800002010B5094CA4
:100228001321204600F0C6F84FF47A7003F0FEFA66
:100238002046502100F0BEF8BDE810404FF47A7017
:1002480003F0F4BAA8000020014800F081B800BF0C
:10025800A800002070B5304C304E23783278304DED
:1002680013F0800F18D000232B60237832780133E5
:100278005BB2237023785BB2934203DA23785BB2D4
:100288000B2B1DDD2B6844F61F620433934238D9CB
:10029800244801F02AFC3CE023785BB29342E4DA7C
:1002A8002378214A5BB202EBC3035B78012BDCD1D4
:1002B80023785BB2002112F8330003F07DFAD4E70B
:1002C8002378194E17485BB206EBC303002259681E
:1002D80001F024FD23785BB206EBC3035A682B6850
:1002E80013442B6023785BB206EBC30359780129CA
:1002F80011D123785BB216F83300BDE8704003F0E3
:100308005BBA29680748C1F59C410022203101F0F9
:1003180005FDFF23237070BD00000020B000002001
:10032800AC000020B400002064010020012A02D1A2
:10033800016000207047022A05D0032AF9D0002A5C
:10034800F7D10260F5E70B680360F2E70368184726
:10035800084A13780B2B09D8591C1170064A0370E8
:1003680002EBC30340F2DC525A607047FF2303706C
:10037800704700BFB00000206401002010B5047869
:100388000B2C14D890F90120C2F18802B1EB820F2E
:100398004FEA820307DB90F90230C3F516739B001E
:1003A8008B42A8BF0B46024A02EBC402536010BD41
:1003B80064010020B1F5087F13B5044615DA94F9F5
:1003C800022094F90130B429A8BFB421C2F51672ED
:1003D80008469200C3F18803009200219B00B422D2
:1003E80020EAE07003F038F90146204602B0BDE883
:1003F8001040FFF7C3BF00002DE9FF411C460378FA
:100408000B2B0646884615464ED80121404603F078
:1004180069F9274F33780A9907F833803046FFF790
:10042800C9FFD5F5087248BF0332D4F516634FEA01
:10043800A20248BF03339B1072701E4AB370002398
:1004480012F8331001292AD001330C2BF8D11A489D
:1004580001F038FC1949B0FBF1F1174801F06BFBCA
:100468001548002244F6206101F058FC002301934E
:10047800134B0093134B03930F48134B0293694696
:1004880001F05CFD029B1BB16946032208469847B0
:100498000948002101F01FFB074801F0FBFA3378F7
:1004A80007EBC30301225A70307804B0BDE8F0812D
:1004B8006401002065010020B400002040420F00C4
:1004C8005D020008550300083503000807B54FF41E
:1004D800166300924FF40872FFF78EFF03B05DF8C1
:1004E80004FB00000149024801F0E0BC0014004090
:1004F800B4000020014801F07DBB00BFB40000201B
:100508007047000038B50E4B1A784FF47A73B3FB76
:10051800F2F30C4A05461068B0FBF3F000F0A6F8B9
:10052800044658B90F2D09D8024629464FF0FF3026
:1005380000F04AF8044B20461D6038BD0120FCE756
:1005480001000020340000200400002008B50B4BF7
:100558001A6842F400721A601A6842F480621A60DB
:100568001A6842F480721A60032000F01BF8002019
:10057800FFF7C8FFFFF7C4FF002008BD003C02409A
:10058800034A044B11681B780B441360704700BF83
:10059800C401002001000020014B1868704700BF0B
:1005A800C40100200749CA6822F4E0620302120469
:1005B80003F4E063120C134343F0BF6343F40033C6
:1005C800CB60704700ED00E0164B30B5DC68C4F333
:1005D8000224C4F10703251D042B28BF0423062D7C
:1005E8004FF0FF358CBF033C002405FA03F321EAE2
:1005F8000303A54022EA0502A340002843EA0203B8
:10060800ACBF00F16040084A4FEA0313B8BF00F0DE
:100618000F00DBB2AABF00F56140135480F8003325
:1006280030BD00BF00ED00E014ED00E0002807DB5E
:10063800044A4109012300F01F00834042F8213099
:10064800704700BF00E100E000280CDB43090649C1
:1006580000F01F0020330122824041F82320BFF31D
:100668004F8FBFF36F8F704700E100E00138B0F1A2
:10067800807F0BD24FF0E023054A5861F02182F8C1
:1006880023100020072298611A61704701207047E3
:1006980000ED00E0002808DB4309044900F01F00D2
:1006A80001226033824041F82320704700E100E0D6
:1006B800704708B5FFF7FCFF08BD704710B5044642
:1006C80050B1437903F0FF0213B90271FFF7F5FF48
:1006D80001236371002010BD0120FCE710B504461A
:1006E80040B10223037101F029FD002020616071EF
:1006F800207110BD0120FCE710B5012358B1046832
:1007080001F01001226803FA01F122EA01022260D5
:100718000371002010BD1846FCE770B50446866DCD
:10072800FFF73AFF94F83530022B054606D08023B0
:1007380063650120002384F8343070BD23681A688B
:1007480022F016021A605A6922F080025A61226C5D
:100758000AB9A26C1AB11A6822F008021A601A685B
:1007680022F001021A602368186810F0010007D10E
:10077800E26D3F239340B360012384F83530D9E715
:10078800FFF70AFF401B0528EDD9202303206365E6
:1007980084F83500CEE790F83530022B03D080235B
:1007A8004365012070470268052380F835301368D7
:1007B80023F001031360002070470000044A5169C8
:1007C800014208B502D0506101F07EFD08BD00BFAE
:1007D800003C01402DE9F341044640B30368DE07BD
:1007E80010D423689D075BD42368190700F19D8006
:1007F80023685A0700F1BD80A369002B40F02481CB
:1008080000202CE08D4B9A6802F00C02042A07D0D5
:100818009A6802F00C02082A0BD15B68590208D5C5
:10082800864B1B689A03DCD56368002BD9D101205D
:1008380015E06368814DB3F5803F13D12B6843F40D
:1008480080332B60FFF7A8FE7C4E054633689B0378
:10085800C7D4FFF7A1FE401B6428F7D9032002B0D4
:10086800BDE8F081B3F5A02F04D12B6843F48023B1
:100878002B60E3E72A6822F480322A602A6822F48F
:1008880080222A60002BDDD1FFF786FE06462B6802
:100898009F03A6D5FFF780FE801B6428F7D9DDE704
:1008A800664B9A6812F00C0F07D09A6802F00C0297
:1008B800082A11D15B685D020ED4604A1368990753
:1008C80002D5E368012BB2D11368216923F0F8033C
:1008D80043EAC103136087E7E268594BB2B10122CA
:1008E8001A60FFF759FE554D06462B689B0707D53A
:1008F8002B68226923F0F80343EAC2032B6073E7ED
:10090800FFF74AFE801B0228EFD9A7E71A60FFF716
:1009180043FE4A4E054633689F077FF565AFFFF7EC
:100928003BFE401B0228F6D998E76269444B82B126
:100938000122C3F8802EFFF72FFE404E0546736F45
:100948009B073FF555AFFFF727FE401B0228F6D956
:1009580084E7C3F8802EFFF71FFE384E0546736FF5
:100968009F077FF545AFFFF717FE401B0228F6D912
:1009780074E7324B1A6C12F0805228D101921A6C2B
:1009880042F080521A641B6C03F080530193019B60
:1009980001272C4D2B68D8051BD5A368274D012BA3
:1009A80027D12B6F43F001032B67FFF7F5FD234E8B
:1009B800054641F28838336F9A0739D5002F3FF43E
:1009C8001BAF1E4A136C23F08053136414E70027EF
:1009D800DFE72B6843F480732B60FFF7DDFD0646E5
:1009E8002B68D905D9D4FFF7D7FD801B0228F7D982
:1009F80034E7052B04D12B6F43F004032B67D0E7B2
:100A08002A6F22F001022A672A6F22F004022A675D
:100A1800002BCAD1FFF7C0FD41F2883806462B6F7C
:100A28009B07CBD5FFF7B8FD801B4045F7D915E7E5
:100A3800FFF7B2FD401B4045BDD90FE70038024023
:100A48000000474200700040374DAA6802F00C02CF
:100A5800082A3ED0022B354B4FF000021A662BD1E4
:100A6800FFF79AFD06462B6899011FD4D4E907328F
:100A78001343626A43EA8213E26A43EA0263A26AA0
:100A88005208013A43EA02436B60284B264D012283
:100A98001A66FFF781FD04462B689A013FF5B0AE50
:100AA800FFF77AFD001B0228F6D9D7E6FFF774FD99
:100AB800801B0228D7D9D1E6FFF76EFD04462B68C4
:100AC8009B017FF59DAEFFF767FD001B0228F6D955
:100AD800C4E6012B3FF4ABAE6B68E26903F4800116
:100AE80091427FF4A4AE216A03F03F028A427FF468
:100AF8009EAE616A47F6C0721A40B2EB811F7FF45E
:100B080096AEA26A520803F44031013AB1EB024FA3
:100B18007FF48DAEE26A03F07063B3EB026F14BF2B
:100B2800012000209BE600BF003802400000474239
:100B3800134908B58B6803F00C03042B1CD0082B51
:100B48001CD14A684B68496813F4800314BF0D48E8
:100B58000D48C1F3881118BF002302F03F02A1FB22
:100B68000001FFF70DFB064B5B68C3F3014301333C
:100B78005B00B0FBF3F008BD0248FCE70248FAE767
:100B88000038024000127A000024F4002DE9F041F8
:100B98000D46044610B90120BDE8F081434B1A68A0
:100BA80002F007028A4228D321688F072DD4C8078C
:100BB80040D43E4B1A6802F00702AA4265D8226860
:100BC80051076BD4130707D5394A2169936823F471
:100BD800604343EAC1039360FFF7AAFF344B354AE9
:100BE8009B68C3F30313D35CD840334B1860334B73
:100BF8001868FFF787FC0020CEE7CAB21A701B6896
:100C080003F007038B42C6D1CEE7294B11F0040F3E
:100C18001EBF9A6842F4E0529A600E0742BF9A6873
:100C280042F460429A609A68A06822F0F002024397
:100C38009A60BCE762681E4B012A1CD11B6813F43A
:100C4800003FA8D01A4EB36823F003031343B360E0
:100C5800FFF7A2FC41F288380746B368626803F0E0
:100C68000C03B3EB820FA4D0FFF796FCC01B4045E2
:100C7800F3D9032090E7911E01291B6802D813F0CD
:100C8800007FDEE713F0020FDBE7EAB21A701B6899
:100C980003F00703AB427FF47EAF90E70449E068B6
:100CA8008B6823F4E05303438B608BE7003C0240DE
:100CB80000380240E03E0008340000200400002014
:100CC800044B054A9B68C3F38223D35C034A10682C
:100CD800D840704700380240D83E00083400002051
:100CE800044B054A9B68C3F34233D35C034A10683C
:100CF800D840704700380240D83E00083400002031
:100D08000F2303600B4B9A6802F0030242609A6853
:100D180002F0F00282609A6802F4E052C2609B68B6
:100D2800DB0803F4E0530361034B1B6803F007037C
:100D38000B60704700380240003C024090F83D309C
:100D4800012B2CD10223174A80F83D3003689342C7
:100D58001AD0B3F1804F17D0A2F57C42934213D03A
:100D680002F5806293420FD002F5806293420BD065
:100D780002F57842934207D002F57052934203D0AD
:100D8800A2F59432934204D19A6802F00702062A27
:100D980003D01A6842F001021A600020704701204F
:100DA800704700BF0000014090F83C20012A03462C
:100DB8004FF0020009D01A6883F83D005161002005
:100DC800012283F83D2083F83C0070477047704744
:100DD800036870B5DD681E69B10704460DD5AA071A
:100DE8000BD56FF002021A61012202779B699B07FB
:100DF80069D001F0F2F800232377710710D56A074C
:100E08000ED523686FF004021A61022222779B69CB
:100E180013F4407F20465CD001F0DFF800232377ED
:100E280033070FD528070DD523686FF008021A611C
:100E380004222277DB699907204650D001F0CDF8CB
:100E480000232377F20610D5EB060ED523686FF042
:100E580010021A6108222277DB6913F4407F2046CA
:100E680043D001F0BAF800232377F00708D5E90743
:100E780006D523686FF001021A61204601F08AF84E
:100E8800320608D52B0606D523686FF080021A6152
:100E9800204600F006FA700608D5690606D52368CC
:100EA8006FF040021A612046FFF791FFB20622D583
:100EB800AB0620D523686FF0200220461A61BDE8F2
:100EC800704000F0EDB901F086F82046FFF77EFF8C
:100ED80091E701F080F82046FFF778FF9EE701F0E0
:100EE8007AF82046FFF772FFAAE701F074F8204667
:100EF800FFF76CFFB7E770BD294A036890421BD023
:100F0800B0F1804F18D0A2F57C42904214D002F57F
:100F18008062904210D002F5806290420CD002F5B7
:100F28007842904208D002F57052904209D1CA68BE
:100F380023F44073134317E04A6823F07003134304
:100F4800F5E7184A9042F2D002F580629042EED05E
:100F5800A2F598329042EAD002F580629042E6D03B
:100F680002F580629042E2D04A6923F0800313437D
:100F780003608B68C3620B688362094B984203D095
:100F880003F58063984201D10B6903630123436130
:100F98000369DB0742BF036923F00103036170475C
:100FA800000001400044014010B5044630B390F8F9
:100FB8003D3003F0FF021BB980F83C2001F0B8FD7A
:100FC8000223206884F83D30211DFFF795FF012397
:100FD80084F84630002084F83E3084F83F3084F8A6
:100FE800403084F8413084F8423084F8433084F843
:100FF800443084F8453084F83D3010BD0120FCE7CA
:10100800036A01F01F0110B501248C4023EA040390
:101018000362036A8A401A43026210BD08B529B9FF
:1010280090F83E30012B1DD0012032E0042907D171
:1010380090F83F30012BF7D1022380F83F3014E0BD
:10104800082907D090F84130012BEDD1022380F810
:1010580041300AE090F84030012BE5D1022380F8B6
:10106800403002E0022380F83E3000680122FFF79A
:10107800C7FF174B98420DD003F58063984209D0FB
:10108800B0F1804F0BD1836803F00703062B19D109
:10109800002008BD436C43F400434364F3E70D4B61
:1010A8009842F0D003F580639842ECD003F5806352
:1010B8009842E8D003F59A339842E4D0A3F59433E4
:1010C8009842E0D0036843F001030360E0E700BF03
:1010D8000000014000040040FFF7A0BF10B5034620
:1010E80000293BD190F83E4093F84220012CE0B211
:1010F800D2B267D1012A30D1022283F83E2083F888
:10110800422018680122FFF77BFF2F4B98421AD024
:10111800B0F1804F17D0A3F57C43984213D003F564
:10112800806398420FD003F5806398420BD003F593
:101138007843984207D003F57053984203D0A3F53B
:101148009433984204D1836803F00703062B03D035
:10115800036843F001030360002010BD04290FD188
:1011680090F83F4093F84320012CE0B2D2B229D145
:10117800012AF2D1022283F83F2083F84320C0E7F6
:1011880008290FD090F8414093F84520012CE0B28F
:10119800D2B217D1012AE0D1022283F8412083F884
:1011A8004520AEE790F8404093F84420012CE0B287
:1011B800D2B207D1012AD0D1022283F8402083F885
:1011C80044209EE70120C8E700000140036A01F0BF
:1011D8000F0110B504248C4023EA04030362036A58
:1011E8008A401A43026210BD08B529B990F8423006
:1011F800012B1DD001204EE0042907D190F843307F
:10120800012BF7D1022380F8433014E0082907D0D6
:1012180090F84530012BEDD1022380F845300AE0E3
:1012280090F84430012BE5D1022380F8443002E0E5
:10123800022380F8423000680422FFF7C7FF436C9E
:1012480043F400434364144B98421AD0B0F1804FE2
:1012580017D0A3F57C43984213D003F580639842D6
:101268000FD003F5806398420BD003F5784398427A
:1012780007D003F57053984203D0A3F594339842EE
:1012880004D1836803F00703062B03D0036843F0F7
:1012980001030360002008BD00000140FFF7A4BF60
:1012A80070477047026802F10C0353E8003F23F4CB
:1012B80090730C3242E8003102680029F2D102F141
:1012C800140353E8003F23F0010302F1140C4CE827
:1012D80000310029F3D1036B012B0BD102F10C0370
:1012E80053E8003F23F0100302F10C0C4CE80031E6
:1012F8000029F3D1202380F842300023036370478C
:101308000268C16838B5136923F440530B4313616D
:10131800054683680069D168034368690343E8693F
:1013280021F4164121F00C0103430B43D3605369A8
:10133800A96923F440730B4353611F4B9A4203D0AE
:1013480003F580639A4224D1FFF7CAFCEA691921A0
:10135800B2F5004FD5E90043A0FB01011CD1DA1812
:101368004FF0000545EB0503FEF70AFF6422B0FBCA
:10137800F2F102FB1103DB003233B3FBF2F303F0AB
:1013880007025B0002EB011203F4F8731344A36035
:1013980038BDFFF795FCD9E79A009B0FFEF7F0FEE2
:1013A8006422B0FBF2F102FB11031B013233B3FBE1
:1013B800F2F303EB0113EAE700100140704710B5A0
:1013C800044648B390F8413003F0FF021BB980F897
:1013D8004020FFF7F3FF2268242384F84130D368C4
:1013E80023F40053D3602046FFF78AFF23681A6965
:1013F80022F490421A615A6922F02A025A61DA6884
:1014080042F40052DA6000202023606484F84130FE
:1014180084F84230606310BD0120FCE710B5044633
:1014280068B390F8413003F0FF021BB980F8402000
:10143800FFF7C4FF2268242384F84130D36823F4DB
:101448000053D3602046FFF75BFF23681A6922F434
:1014580090421A615A6922F022025A615A6942F08E
:1014680008025A61DA6842F40052DA600020202348
:10147800606484F8413084F84230606310BD012014
:10148800FCE790F84130202B10D189B182B1C28499
:1014980001628284016800232122436480F841208C
:1014A800CA6842F08002CA60184670470220704736
:1014B8000120704708B5806B0023C385C38401F001
:1014C80097FD08BD704790F84230222B07B542D1EE
:1014D80081680268836AB1F5805F3FD1016900299C
:1014E8003FD15268C2F3080223F8022B8362C38DEE
:1014F800013B9BB2C385002B2DD10268D16821F036
:101508002001D160D16821F48071D160516921F046
:1015180001015161202280F842204363026B012AB5
:10152800026828D1036302F10C0353E8003F23F05B
:10153800100302F10C0C4CE800310029F3D11368B8
:10154800DB0605D501911368019353680193019B4C
:10155800818DFFF7B7FF03B05DF804FB39B9016966
:1015680029B95268D2B21A70836A0133BEE7526849
:1015780002F07F02F7E701F035FDECE703681A682F
:1015880073B51607D9685D6904460AD1960640F115
:101598008B808D0640F1888002B0BDE87040FFF76F
:1015A80092BF15F001054BD012F0010F02F00403B1
:1015B80063D11BB1636C43F002036364930749D59D
:1015C800636C43F00403636412F0080F03D0636C88
:1015D80043F008036364636C002B5FD0920604D564
:1015E8008B0602D52046FFF76EFF26687369626C8A
:1015F80003F0400302F0080253EA020520464FD0E8
:10160800FFF750FE73695E0645D5226802F11403A0
:1016180053E8003F23F04003143242E80031002928
:10162800F3D1E06B002836D08A4B0365FFF7B3F897
:10163800002833D0E06B036D02B0BDE87040184756
:1016480011F4907F30D012F0010F02F0040307D19B
:1016580090070DD41007BED501F020032B43B5E742
:10166800CE050FD4002BF3D19607F3D5002DA7D1C3
:101678001507B0D511F0200FA8E7C80502D4002B34
:1016880098D1F1E7636C560743F001036364EBD527
:10169800002DDDD08EE7204601F0AAFC02B070BD17
:1016A80001F0A6FC6564F9E7206B012840F09580FD
:1016B800D50640F19280C80640F18F800022019241
:1016C8001A6801925A680192019A5A6952064ED5CF
:1016D800E16B0A68526892B2002ADFD0A08D90426E
:1016E800DCD9E285CA69B2F5807F36D003F10C02F5
:1016F80052E8002F22F4807203F10C0040E8002128
:101708000029F3D103F1140252E8002F22F001025C
:1017180003F1140040E800210029F3D103F1140279
:1017280052E8002F22F0400203F1140040E80021A3
:101738000029F3D1202284F84220216303F10C020E
:1017480052E8002F22F0100203F10C0040E80021BB
:101758000029F3D1E06BFEF7E0FF02236363E38D1A
:10176800A18DC91A89B22046FFF7ACFE96E7E28D33
:10177800E08DA18D80B292B200288FD0891A89B2EB
:1017880000298BD003F10C0252E8002F22F490724A
:1017980003F10C0545E800200028F3D103F11402F9
:1017A80052E8002F22F0010203F1140545E8002059
:1017B8000028F3D1202284F84220206303F10C0290
:1017C80052E8002F22F0100203F10C0545E8002032
:1017D8000028F3D102236363C5E7160628D50D0652
:1017E80026D594F84120212A7FF458AFA168226AAF
:1017F800B1F5805F17D12169A9B932F8021BC1F38D
:10180800080159602262E28C013A92B2E284002A0D
:101818007FF444AFDA6822F08002DA60DA6842F0D6
:101828004002DA603AE7511C216212785A60EAE70E
:1018380050067FF533AF4A067FF530AFDA6822F0FD
:101848004002DA60202384F84130204601F0CDFBC5
:1018580024E700BFBD14000890F84030012B11D0D8
:101868000268242380F84130D36823F00C0343F046
:101878000803D360202380F84130002380F84030EB
:10188800184670470220704790F84030012B11D05D
:101898000268242380F84130D36823F00C0343F016
:1018A8000403D360202380F84130002380F84030BF
:1018B800184670470220704790F8412090F842007F
:1018C80010437047C285002382850269436422233E
:1018D80080F84230816203681AB1DA6842F4807293
:1018E800DA605A6942F001025A61DA6842F020026D
:1018F800DA600020704770B490F84260202E06D15C
:1019080041B13AB10024046370BCFFF7DBBF022089
:1019180070BC70470120FBE7836810B504462BB103
:101928000322014698470023C4E9023310BD8368A7
:1019380010B5044613B1032201469847204610BD4E
:101948004B1E032B9ABF880004384FF0FF307047B6
:101958000139435C2BB1022907D8054B33F8110034
:101968007047032901D8034BF8E74FF0FF30704761
:10197800903E0008883E0008013903299ABF024BAF
:10198800585C4FF0FF307047843E00080139032946
:101998009ABF024B58564FF0FF307047803E000800
:1019A800F8B50446FFF7CCFF0246501C0E4600D19E
:1019B800FEE72046FFF7E0FF411C054600D1FEE7A1
:1019C80031462046FFF7C4FF013000D1FEE7B71DBE
:1019D80004EB0717BB682BB12369E9431961D96880
:1019E8000D43DD60731E04EB430189880C293FD841
:1019F800DFE801F04646141414070714143F3F3F6C
:101A08002100E35C04F1100011461BB1BDE8F84069
:101A1800FFF744BCBDE8F840FFF75EBBE35C04F1A8
:101A2800100011461BB1BDE8F840FFF7DDBBBDE86B
:101A3800F840FFF7F3BA114604F11000FFF74EFB28
:101A480031462046FFF7A2FF226901460546204697
:101A5800FFF77EFF136A1843BB68106243B129463B
:101A68002046FFF789FFC3431361D3681843D0604A
:101A7800F8BD04F110001146BDE8F840FFF72EBB91
:101A880023691B68DB07F3D404F11000BDE8F840B4
:101A9800FFF754B9836E10B5044653B150F8103FA0
:101AA8006FF001021A61DA6842F00102DA60FFF7AA
:101AB80045F920460121FFF773FF20460221FFF771
:101AC8006FFF20460321FFF76BFF20460421BDE886
:101AD8001040FFF765BF03691A6819B142F0800228
:101AE8001A60704722F08002FAE701211030FFF7F0
:101AF8005BB90369186800F00100704710B5024629
:101B08000C46FFF7F6FF80B9CB68DB070ED5CB682C
:101B180023F00103CB601046FFF7E7FF6FF00103E6
:101B28002361E36843F00103E36010BDBDE81040A2
:101B38001046FFF7DABF0B460169013B8B62FFF7DE
:101B4800DDBF0000294A9042034635D0B0F1804FEE
:101B580048D0A2F57C42904230D002F58062904293
:101B680042D002F5806290422AD002F5806290420B
:101B780034D002F58062904224D002F5704290423F
:101B88002ED002F5705290421ED002F5806290422B
:101B98001CD002F5806290421AD04FF6FF70144AAA
:101BA800934217D002F58062934215D002F5806205
:101BB800934208BF0D2070470020F0E702207047CD
:101BC8000420704706207047082070470920704796
:101BD8000A2070470B2070470C207047052070477B
:101BE800072070470120704703207047000001401C
:101BF80000180040014670B5044651F8100FFFF771
:101C0800A1FF0546084600F03BFE094A002342F8BA
:101C1800253004F16006E36004F1B005B54204D054
:101C2800103D2846FFF783FEF8E7204670BD00BF49
:101C3800C8010020F8B504460846FFF783FF4FF6B1
:101C4800FF73984200D1FEE7236903B1FEE71C4DFC
:101C5800A36404F10C0245F8202004F110060E22BA
:101C6800C4E90C33C4E90E33C4E91033C4E91623BC
:101C7800216184F82C3084F84C3084F84D30E460CD
:101C8800304600F0FDFC04F1600504F1B007284679
:101C98001035FFF741FEBD42F9D100234FF6FF7220
:101CA800C4E90033C4E90632C4E90833A3606361B8
:101CB8008023A3623046BDE8F840FFF775B900BF3E
:101CC800C801002010B586B014220446002101A8DE
:101CD80001F082FE0023694601A80093FFF710F87F
:101CE800206900F04DFF012802D002280FD0FEE73E
:101CF800049CFEF7E5FFB4F5C05F05D00BD824F4CB
:101D08008064B4F5805F00D1400006B010BD059C2A
:101D1800FEF7E6FFEFE7B4F5E05FF4E7012A38B530
:101D280005460C460BD0022A16D004B1013C29699D
:101D38002846CC62EC61BDE83840FFF7DFBEFFF70C
:101D4800C1FF084BB0FBF3F044432A69230C9362AC
:101D58000133B4FBF3F4E8E7FFF7B4FFB0FBF4F4A6
:101D6800F3E700BF40420F0010B5074C206810B1E0
:101D78000430FFF72DF8606A20B1BDE81040043048
:101D8800FFF726B810BD00BFC8010020034B186834
:101D980010B10430FFF71CB8704700BFC80100201D
:101DA800034B586810B10430FFF712B8704700BFF2
:101DB800C8010020034B986810B10430FFF708B839
:101DC800704700BFC8010020034BD86810B1043029
:101DD800FEF7FEBF704700BFC8010020034B18691B
:101DE80010B10430FEF7F4BF704700BFC8010020EF
:101DF800034B586910B10430FEF7EABF704700BFC3
:101E0800C8010020034B986910B10430FEF7E0BF09
:101E1800704700BFC801002010B5074CE06910B139
:101E28000430FEF7D5FF206B20B1BDE81040043028
:101E3800FEF7CEBF10BD00BFC8010020034BD86914
:101E480010B10430FEF7C4BF704700BFC8010020BE
:101E5800034B186A10B10430FEF7BABF704700BFD1
:101E6800C8010020034B986A10B10430FEF7B0BFD8
:101E7800704700BFC8010020034BD86A10B1043076
:101E8800FEF7A6BF704700BFC8010020034B586B80
:101E980010B10430FEF79CBF704700BFC801002096
:101EA8000022C0E90022C0E902227047F8B50446C2
:101EB8000E4600F1600500F1B00728461035FFF71F
:101EC800EFFFBD42F9D10023204623613146FFF7D9
:101ED800B1FE2046F8BD38B50023C0E90033C0E99B
:101EE80002338B6804460D462BB102229847EB68F3
:101EF800E360AB68A360204638BD30B587B002AD5B
:101F080004462846FFF7E7FF95E803006B4683E899
:101F1800030094E8030085E8030093E80300049BAA
:101F2800A268A360059B049284E80300E268E3606A
:101F380028460592FFF7FBFC07B030BD38B50446CC
:101F48000D46A36E60301BB1BDE83840FFF7D5BF22
:101F5800FFF7D3FFAB683BB123696FF001021A6149
:101F6800DA6842F00102DA6038BD826810B50AB951
:101F780001F072FFBDE81040C368184708B500B902
:101F8800FEE700F07BFB0068836E13B16030FFF75B
:101F9800ECFF08BDFFF7F2BF10B500B9FEE7037FFD
:101FA800013B072B10D8DFE803F004140F100F0FC4
:101FB8000F12012400F062FB0068063400EB0410E5
:101FC80083680BB1FFF7D1FF10BD0324F2E70424A7
:101FD800F0E70224EEE7FFF7DFBFFFF7DDBF01F010
:101FE80045BC01F04BBC00008AB0002308287CD80F
:101FF800DFE800F00513202D3A4754616E00019385
:102008003B4B3C481A6B42F001021A631B6B03F00E
:1020180001030193019B0AB070470293344B364881
:102028001A6B42F002021A631B6B03F0020302935D
:10203800029BF0E703932E4B30481A6B42F00402E0
:102048001A631B6B03F004030393039BE3E70493F6
:10205800274B2B481A6B42F008021A631B6B03F0DC
:1020680008030493049BD6E70593214B25481A6B74
:1020780042F010021A631B6B03F010030593059BD3
:10208800C9E706931A4B20481A6B42F020021A63DC
:102098001B6B03F020030693069BBCE70793144BC6
:1020A8001A481A6B42F040021A631B6B03F0400394
:1020B8000793079BAFE708930D4B15481A6B42F03F
:1020C80080021A631B6B03F080030893089BA2E746
:1020D8000993074B0F481A6B42F480721A631B6B03
:1020E80003F480730993099B95E7002093E700BFE9
:1020F800003802400000024000040240000802408C
:10210800000C024000100240001402400018024077
:10211800001C02400020024008B5074900F076FA8A
:10212800C0F3C430012802D0022802D0FEE7002004
:1021380008BD1020FCE700BFDC4300080268094B1B
:102148009A420DD103F5E2331A6A42F000521A623C
:102158001A6A22F000521A621A6C22F000521A64AB
:10216800704700BF0074004010B50B4986B00446A4
:1021780000F02AFA019060B12046FFF7CDFF30F059
:102188001003014605D101A8FEF7B6FA01A8FEF72B
:10219800A5FA06B010BD00BFDC430008F8B5144925
:1021A800144E074600F010FAFFF7CCFC56F8203022
:1021B800044673B9B020FFF712FF0D4905463846AB
:1021C80000F002FA01462846FFF770FE56F8243060
:1021D8001D6056F824301C6844B12046FFF70AFDFC
:1021E8002046B021BDE8F840FFF7FBBEF8BD00BFB0
:1021F800A0400008C8010020FEF7CEB9704708B516
:10220800FEF7BEF9FEF755FAFFF7F8FF08BD70476D
:1022180084B0114B00220192196C41F0805119646D
:10222800196C01F08051019101990292596C41F4A5
:1022380080415964596C01F48041029102990392DA
:102248001A6B42F480521A631B6B03F48053039396
:10225800039B04B0704700BF003802400C4BD3F812
:10226800FC20D2015EBFD3F8FC2042F08072C3F894
:10227800FC20084B00225A601A6842F001021A60DA
:1022880000BF00BF00BF5868B0FA80F0400970472F
:1022980000ED00E0001000E008B5FFF7B9FFFFF718
:1022A800DDFFFEF753F9FFF7B2FF00F055FFBDE879
:1022B80008400148FEF702BA2C0000200023C0E9BC
:1022C8000033C0E9023370470023012803F10102FB
:1022D8000AD11422DBB25343054A181D1044816801
:1022E80029B11A441369184740081346EDE77047A7
:1022F800000200200120FEF761BA0220FEF75EBA54
:102308000420FEF75BBA0820FEF758BA1020FEF743
:1023180055BA38B505242025A8B2FEF74FFA013C76
:102328004FEA4505F8D138BD38B506244FF4806525
:10233800A8B2FEF743FA013C4FEA4505F8D138BD8B
:10234800344A104608B5062300F8043BFFF7B6FFE9
:10235800072302F118001375FFF7B0FF082302F1F5
:102368002C0082F82830FFF7A9FF092302F140006A
:1023780082F83C30FFF7A2FF0A2302F1540082F8EA
:1023880050301721FFF79AFF02F1680082F86410B5
:10239800FFF794FF02F17C0082F87810FFF78EFFB8
:1023A80002F1900082F88C10FFF788FF02F1A40078
:1023B80082F8A010FFF782FF02F1B80082F8B4108B
:1023C8002821FFF77BFF02F1CC0082F8C810FFF745
:1023D80075FF02F1E00082F8DC10FFF76FFF02F1F1
:1023E800F40082F8F010FFF769FF02F5847082F8B4
:1023F8000411FFF763FF02F58E7082F81811FFF7DA
:102408005DFFBDE8084002F5987082F82C11FFF7CF
:1024180055BF00BF0002002038B5054CA4F5A075D3
:10242800143C201DFFF783FAAC42F9D138BD00BF38
:102438004003002030B591FAA1F391FAA1F1B3FA63
:1024480083F3C4685B000325B1FA81F105FA03F34D
:10245800490024EA03038A401A43C26030BD431C82
:1024680004D00C3151F80C3C5A1C01D100207047A3
:10247800834201F10C01F5D101207047F8B5471CE2
:1024880006460D4600D1FEE700F00F02414BC0F3AF
:10249800031053F82240FFF7A7FD94FAA4F3B3FA08
:1024A80083F3876803225B0002FA03F394FAA4F229
:1024B800B2FA82F227EA03075200032393403B4310
:1024C80005F007018360032903D8DFE801F05F0303
:1024D8002C61FEE7012394FAA4F2B2FA82F20668AC
:1024E8005200032707FA02F226EA020694FAA4F237
:1024F800B2FA82F252009340013933430129036052
:1025080005D843682A074CBF2343A3434360C5F358
:102518000112012A02D0022A18BF00222146BDE872
:10252800F840FFF787BFC5F306227F2A01D10223AF
:10253800D1E7360716D5230A93FAA3F6B6FA86F634
:10254800476A93FAA3F3B6004FF00F0CB3FA83F37C
:102558000CFA06F69B0027EA060602FA03F3334351
:102568004362E4E794FAA4F3B3FA83F3066A9B00A0
:102578000F2707FA03F326EA030694FAA4F3B3FA3B
:1025880083F39B009A4032430262D0E70023A2E71C
:102598000323A0E7983E0008431C06D170478342F6
:1025A80002D18968FFF76ABF0C310B685A1CF6D153
:1025B800FEE70B685A1C01D100207047834201D105
:1025C800486870470C31F4E7431C01D0FFF7F1BFAE
:1025D800002070474B6813B94FF0FF3070478342B3
:1025E80001D1086870470C31F4E708B1FFF7F2BF72
:1025F8004FF0FF30704703460868421C00D170470F
:10260800984201D1886870470C31F5E7431C01D026
:10261800FFF7F1BF704703468B42084604D01BB151
:1026280000290CBF18460020704700001049D1F857
:10263800883043F47003C1F888300E4B1A6842F0B2
:1026480001021A6000229A601A6822F0847222F449
:1026580080321A60084A5A601A6822F480221A6086
:102668004FF43F02DA604FF000638B60704700BFA1
:1026780000ED00E0003802401030002404387047B4
:102688000368714A93428EB01CD1002200926F4AAF
:10269800516C41F001015164526C02F00102009248
:1026A800009A6B4A934240F09D8000230893674B41
:1026B8005A6C42F480325A645B6C03F4803308939A
:1026C800089B4CE0B3F1804F1BD1002201925F4A76
:1026D800116C41F001011164126C02F001020192C7
:1026E800019A5C4A93421BD100230C93574B1A6CF6
:1026F80042F080021A641B6C03F080030C930C9B5D
:102708002DE0554A93421BD1002202924F4A116C88
:1027180041F002011164126C02F002020292029A64
:102728004E4A93421BD100230D93484B1A6C42F436
:1027380080721A641B6C03F480730D930D9B0EE07A
:10274800474A93420DD100230393404B1A6C42F041
:1027580004021A641B6C03F004030393039B0EB07A
:102768007047404A93420CD100230493374B1A6CAC
:1027780042F008021A641B6C03F008030493049BDC
:10278800EDE7394A93420CD1002305932F4B1A6C7D
:1027980042F010021A641B6C03F010030593059BAA
:1027A800DDE7324A93420CD100230693274B1A6C7B
:1027B80042F020021A641B6C03F020030693069B68
:1027C800CDE72B4A93427FF46CAF002307931F4B4E
:1027D8005A6C42F002025A645B6C03F002030793DE
:1027E800079BBCE7234A93420CD100230993174B5C
:1027F8005A6C42F400325A645B6C03F40033099358
:10280800099BACE71C4A93420CD100230A930F4B57
:102818005A6C42F480225A645B6C03F480230A9356
:102828000A9B9CE7154A93427FF45BAF00230B9306
:10283800064B1A6C42F040021A641B6C03F040030A
:102848000B930B9B8BE700BF000001400038024050
:1028580000400140001C00400004004000200040EF
:1028680000080040000C0040001000400014004028
:1028780000040140004401400048014000180040A5
:1028880003683F4A934215D13E494A6C22F001023F
:102898004A643D4A934243D002F58062934244D051
:1028A80002F5806293420DD102F50632136C23F4CF
:1028B800807306E0B3F1804F05D1324A136C23F0E0
:1028C800010313647047314A934205D102F50D3272
:1028D800136C23F00203F4E72D4A934205D102F565
:1028E8000C32136C23F00403EBE72A4A934205D118
:1028F80002F50B32136C23F00803E2E7264A9342F1
:1029080005D102F50A32136C23F01003D9E7234AE4
:1029180093420FD102F50932136C23F02003D0E75C
:10292800184A136C23F04003CBE7164A136C23F0C4
:102938008003C6E71A4A934206D102F59A32536CCD
:1029480023F0020353647047164A934205D102F5F7
:102958007842536C23F48033F4E7134A934205D149
:1029680002F57442536C23F40033EBE70F4A9342A9
:102978008FD102F57042536C23F48023E2E700BF45
:1029880000000140003802400018004000040040E8
:1029980000080040000C00400010004000140040F7
:1029A800000401400040014000440140004801404B
:1029B800431C3AD0294B98423AD018D8A3F5406323
:1029C800984237D00BD8A3F50063984234D003F56A
:1029D8008063984232D0B0F1804F31D0FEE7204B6F
:1029E80098422FD003F5806398422DD0F6E71D4B0F
:1029F80098422DD00CD8A3F56443984226D003F50D
:102A08006043984226D0A3F56443984220D0E5E776
:102A1800154B98421ED003F5806398421CD0A3F54D
:102A280000639842DAD1182070476FF00D007047A4
:102A38002B207047322070471D2070471E2070479A
:102A48001C20704736207047372070472D2070476C
:102A58002C207047192070471A2070470018004032
:102A6800001000400004014000440140431C3AD0DB
:102A78002B4B98423AD01CD8A3F58053984237D0B4
:102A88000BD8A3F50063984234D003F580639842CD
:102A980032D0B0F1804F31D0FEE7224B98422FD090
:102AA80003F5806398422DD0A3F5006398422BD09C
:102AB800F2E71D4B984229D00CD8A3F580439842E1
:102AC80026D003F58063984224D0A3F56443984246
:102AD80022D0E1E7154B984220D003F58063984255
:102AE800DAD11A2070476FF00D0070472C2070471C
:102AF800322070471D2070471E2070471C207047E9
:102B0800372070472B2070473620704718207047B1
:102B18001B2070472E2070472D20704719207047C2
:102B2800001C0040001400400040014000440140E7
:102B380038B5FFF7A5FD04460068FFF739FFD4E96B
:102B48001212FDF741FD2068FFF732FFFDF76EFD19
:102B580022681046FFF78AFF05461046FFF728FF50
:102B680085420BD02846D4E91212FDF72DFD2068C6
:102B7800FFF77CFFBDE83840FDF758BD38BD0000C1
:102B8800431C3AD01F4B984235D024D8A3F5704344
:102B9800984234D00ED8A3F5006398422FD005D8B8
:102BA80020F48060B0F1804F29D0FEE7164B9842A0
:102BB80025D0FAE7154B984221D008D8A3F5006331
:102BC80098421CD003F58063984218D0EDE7104B6B
:102BD800984214D0E9E70F4B98420CD008D8A3F5D7
:102BE8008043984207D003F57053984203D0DCE73E
:102BF800094B9842D9D10220704700207047012024
:102C0800704700BF00000140000C0040001C00405D
:102C18000020004000440140004801402DE9F04FE9
:102C280089B004468A46406D8F499846129B0193A5
:102C38009146FFF7C9FC8D498346A06DFFF7C4FC98
:102C48008B490646E06DFFF7BFFC8A490546206EB2
:102C5800FFF7BAFC0746BBF1000F00F00281A26D36
:102C6800013202D0002E00F0FC80E26D013202D069
:102C7800002D00F0F680226E013202D0002F00F005
:102C8800F08031465846FFF7C6FC29462060FFF71A
:102C9800C2FC39462060FFF7BEFC2060002800F027
:102CA800E080754B98424FD103F594335A6A42F04D
:102CB80010025A625A6A22F010025A6200220292E4
:102CC8005A6C42F010025A645B6C03F010030293D2
:102CD800029B2523A4F864306349606DFFF75CFC10
:102CE8001EB16249A06DFFF757FC2DB16049E06D38
:102CF800FFF752FC4FF480752FB15E49206E45F402
:102D08000075FFF749FC94F865205C4B94F9640062
:102D1800C4F80C90271D43F822702368C4E9013ACF
:102D2800019B0022C4E904380C23C4E90635226259
:102D38000121FDF749FC3846002E40F08D8009B08E
:102D4800BDE8F04FFEF76ABB4D4B984217D103F52B
:102D5800FA331A6A42F400321A621A6A22F400320A
:102D68001A62002203921A6C42F400321A641B6C35
:102D780003F400330393039B4FF49373AAE7414B87
:102D8800984217D103F5F8331A6A42F480221A627E
:102D98001A6A22F480221A62002204921A6C42F4FF
:102DA80080221A641B6C03F480230493049B40F272
:102DB80027238FE7344B984217D103F5F6331A6A65
:102DC80042F400221A621A6A22F400221A620022CD
:102DD80005921A6C42F400221A641B6C03F4002357
:102DE8000593059B4FF44D7374E7284B984217D110
:102DF80003F5F4331A6A42F480121A621A6A22F44A
:102E080080121A62002206921A6C42F480121A6426
:102E18001B6C03F480130693069B40F2354359E775
:102E28001B4B98427FF458AF03F592335A6A42F02D
:102E380020025A625A6A22F020025A62002207923D
:102E48005A6C42F020025A645B6C03F0200307932B
:102E5800079B40F247533DE709B0BDE8F04FFEF746
:102E6800AEBA09B0BDE8F08F10400008803F0008F6
:102E7800383F0008F03E00080010014040030020E1
:102E88000044004000480040004C00400050004012
:102E98000014014010B4019C20B101945DF8044B6A
:102EA800FFF7BCBE5DF8044B7047000008B5074B40
:102EB80090F8652053F82200FEF7FEFC00F022008F
:102EC800A0F122035842584108BD00BF400300202A
:102ED80008B5074B90F8652053F82200FEF7ECFC84
:102EE80000F02100A0F121035842584108BD00BF5D
:102EF8004003002070B50E46054610B94FF0FF306C
:102F080070BDFFF7D3FF04460028F7D129460122F8
:102F180011F8663F337095F86500034B53F82000AD
:102F2800FEF7E9FC2046EBE74003002038B50D46E4
:102F38000446B8B1FFF7BAFFA0B994F96400E56494
:102F4800FDF782FB94F86500074B04F1660153F81E
:102F580020000122FEF7CFFC94F96400BDE8384058
:102F6800FDF764BB38BD00BF4003002038B51546E7
:102F78000446B8B1016590F96400FDF765FBE36E9E
:102F8800B4F8761094F8650013FA81F1064BAAB2EA
:102F980053F82000FEF775FA94F96400BDE838404C
:102FA800FDF744BB38BD00BF4003002048B1836D26
:102FB800013306D190F86520024B53F82200FEF742
:102FC8004BBC70474003002048B1836D013306D1E4
:102FD80090F86520024B53F82200FEF755BC704765
:102FE80040030020836C04381847C36C0438184722
:102FF80030B5044650F804391D6815F0010585B050
:1030080012D0002200921A6800925B680093009B1D
:10301800FFF74CFF40BB012204F16201204605B0D6
:10302800BDE83040FEF767BC196811F0020106D010
:1030380001951A6801925B680193019BE8E71A6899
:1030480012F0040206D002911A6802925B68029399
:10305800029BDDE719680907DAD503921A6803921B
:103068005B680393039BD3E705B030BD08B5252003
:10307800FDF710FB024B1868BDE80840FEF77EBA62
:103088004003002008B52620FDF704FB034B5868D1
:1030980018B1BDE80840FEF771BA08BD400300202A
:1030A80008B52720FDF7F6FA034B986818B1BDE874
:1030B8000840FEF763BA08BD4003002008B5342075
:1030C800FDF7E8FA024BD868BDE80840FEF756BAA3
:1030D8004003002008B53520FDF7DCFA024B1869DB
:1030E800BDE80840FEF74ABA4003002008B547206B
:1030F800FDF7D0FA024B5869BDE80840FEF73EBA22
:10310800400300200A490346086810B50344EFF35A
:103118000882934205D9074B0C221A604FF0FF3002
:1031280010BD054A054C121B9342F4D20B60F7E719
:1031380038000020D4050020000002200004000010
:10314800FEE70000024B16221A604FF0FF3070476E
:10315800D40500200120704730B595B01022002119
:103168000AA800F039FC1422002103A800F034FC5E
:10317800244C00220092236C43F080532364236C78
:1031880003F080530093009B1F4B01921A6842F48E
:1031980080421A601B6803F480430193019B01215C
:1031A8004FF480330225CDE908134FF4800308203B
:1031B800CDE90E534FF4A873CDE91003072308A8EF
:1031C80012951393FDF706FB00B1FEE70F23CDE937
:1031D800033505904FF4A0524FF48053052103A8FE
:1031E800CDE90623FDF7D2FC00B1FEE70290236B80
:1031F80043F480132363236B03F480130293029B2D
:1032080015B030BD00380240007000407047B0F87B
:103218000831B0F80421981A00F03F007047B0F860
:103228000831B0F804219BB293421ABFD0F8FC30A1
:10323800985C4FF0FF30704790F80631B0F80A01FB
:10324800C0B2834227BFC3F13F03C018C01A00F1C0
:10325800FF30704707B503688DF807105B680122D7
:103268000DF10701984703B05DF804FB13B50DF1A4
:1032780007010446FFF73EFE88B9B4F87430B4F885
:103288007020013303F03F03934208D0B4F8742050
:10329800A16E9DF8070092B28854A4F8743002B069
:1032A80010BD0000B0F87620816F11FA82F202F0AA
:1032B8003F0210B5A0F87620B0F87610B0F872206A
:1032C80089B28A421AD0B0F87640B0F87610A4B223
:1032D8004032121B544289B204F03F0402F03F020C
:1032E800C1F1400158BF62428A4228BF0A4682673C
:1032F8000349FFF73BFE4FF0FF3010BD0020FCE70D
:10330800AD32000803682DE9F0479B6804468846FB
:103318001646984701232374D4F8EC30B4F8069184
:1033280001338246C9F1400904F1940708D194F8A1
:1033380010312BB1002384F810313846FFF736FEE0
:10334800236820469B6898470028F9D035464D45A4
:1033580023D8554521D8B4F80621D4F800015319CB
:10336800402B10442FD82A46414600F073FBA9464B
:10337800B4F806311D4405F03F05A4F80651384657
:10338800FFF7A6FD30B91749C4F80C914A463846EC
:10339800FFF7ECFD3046BDE8F087D145236828BF2C
:1033A800D1464A4641465B682046984723682046EE
:1033B8009B689847A5EB0905C844B4F8069182466E
:1033C800C9F14009C3E7C2F140094A46414600F045
:1033D80041FBD4F80001A5EB090208EB090100F054
:1033E80039FBC5E7AD320008037C70B504460D46CD
:1033F800A3B1FDF7D1F80646B4F80621B4F80A31AE
:103408009BB29A420AD0002DF8D0FDF7C5F8801B70
:103418008542F1D8B4F80A31A4F8063170BDC0F875
:10342800F030009BC0F8F430914208BF4FF0FF31F4
:1034380000F11103C0E93A21C0F8FC3000F1510253
:103448000023A0F80831C0E94023A0F80A317047EA
:10345800F7B54FF47A7317460022C0E901231C4BD5
:1034680003604FF0FF33C0F8EC301A4B1A4E044695
:103478009C42F06D0D4605D1B36DC4F8EC30C4F82C
:10348800E8000AE01549FFF79FF8854215D1B36DAA
:10349800C4F8EC30F36DC4F8E830012F4FF0FF3377
:1034A80008BFC4F8EC3000932046D4E93A214FF025
:1034B800FF33FFF7B4FF03B0F0BD09492846FFF713
:1034C80094F80649C4F8EC002846FFF78EF8D6E7CA
:1034D8007C450008580300204044000810400008BC
:1034E800803F0008D0F8EC30013310B504460FD106
:1034F800036800215B6A984794F8103143B90123A7
:1035080084F8103104F19400BDE81040FFF75CBD69
:1035180010BD000002F00703023BDBB2042B73B5B9
:103528000546C0F8141180F81121144602F0300045
:1035380002D930280ED1FEE7154A3028D25C0CD1CA
:1035480001324FF4C063082A0ED0092AF3D14FF490
:1035580080520AE09306EED4EDE714F020031CBF76
:1035680001324FF48063EEE70022C4F3C00405F192
:103578009406640330460094FFF78CFC2846FFF756
:10358800B1FF0449304602B0BDE87040FFF7CEBC39
:103598006C4500087532000810B50446FFF7A2FF15
:1035A800B4F80821B4F8043192B29A421FBFD4F893
:1035B800FC20D05C013303F03F0314BFA4F80431AE
:1035C8004FF0FF3010BD0000024903480022FFF70A
:1035D8003FBF00BF001001405803002010B504464B
:1035E80000F022F9E060236820465B6998470028CC
:1035F80008DA00F019F9E368C01AA3689842F2D310
:103608004FF0FF3010BDF8B507460D468E180C4632
:10361800B44201D1601BF8BD3846FFF7DFFF031E37
:10362800F8DB04F8013BF3E72DE9F041074688464B
:1036380016461D4673B100243846FFF7CFFF031E18
:1036480005DB434503D033550134A542F4D1204668
:10365800BDE8F0811C46FAE710B5441A0298C01A72
:103668004443521A94FBF2F4E01810BD08B5032045
:10367800FCF798FFBDE8084000F0F4B808B5AFF3D0
:103688000080FCF7B7FDFCF7C9FD00F0DDF8FAE7AC
:10369800DFF834D0FEF7CAFF0C480D490D4A002365
:1036A80002E0D458C4500433C4188C42F9D30A4AEF
:1036B8000A4C002301E013600432A242FBD300F05D
:1036C800A3F9FFF7DBFF704700000220000000208D
:1036D8008C000020D04500088C000020DC0500206C
:1036E800FEE70000C3B24A2B2DE9F0410D462AD867
:1036F8002C4A52F8233000F4E0641C43621C4ED07C
:10370800294EC4F3031704F00F0856F8273023FA9C
:1037180008F3DB0710D525492046FEF7A0FE18B3AD
:103728002046FEF721FD56F82730012202FA08F25A
:1037380023EA020346F82730052D1FD8DFE805F0F5
:103748001F2B2527292D00F0C002C02A27D1CF2BF7
:1037580025D8174B00F03F0200F4E06453F822200C
:10376800104B53F82230C8E712492046FEF777FE7F
:103778000028D8D02046FEF711FDD4E7FEE7002147
:103788002046BDE8F041FEF779BE1021F8E7202178
:10379800F6E70321F4E70121F2E70921F0E7BDE8A4
:1037A800F08100BF4044000870040020DC4300089A
:1037B80000440008A0400008C3B24A2B14D8164A97
:1037C80052F8233000F4E0601843C0F30313082BC9
:1037D8001DD8124A52F82330114A00F00F0052F84F
:1037E8002020B1B19A61704700F0C002C02A0CD104
:1037F800CF2B0AD80B4B00F03F0200F4E06053F8DF
:103808002220054B53F82230DEE74FF0FF3000232B
:10381800E2E71204E6E700BF404400080800002081
:10382800983E000800440008FEF7E6BC38B5044698
:1038380048B1FEF7E1FC054600F016F8FEF7DCFC9F
:10384800431BA342F8D338BD08B5044B2BB1044839
:10385800FFF7DDFC08B1AFF3008008BD00000000F1
:1038680058030020FEF718BD70470000024B0146C0
:10387800186800F02DB800BF3C000020024B01463C
:10388800186800F0F5B800BF3C00002070B50F4E76
:103898000C463168054611B900F0A6F8306021469B
:1038A800284600F0A1F8431C03D14FF0FF3420460E
:1038B80070BDC41C24F00304A042F8D0211A284685
:1038C80000F092F80130F2D1EFE700BF9404002035
:1038D8002DE9F041CD1C25F0030508350C2D38BF26
:1038E8000C25002D064601DBA94204D90C233360C0
:1038F8000020BDE8F081314F00F062F83B681C46BB
:1039080044BB29463046FFF7C1FF431C044650D14B
:103918003C682146002941D1002C44D02368304618
:1039280004EB030800F060F880453CD121686D1A6B
:1039380029463046FFF7AAFF013034D023682B44CC
:1039480023603B68002B36D05A68A24229D1002256
:103958005A600EE02268521B1DD40B2A16D9611931
:10396800A342256018BF5960636808BF3960625177
:103978004B60304600F02AF804F10B00231D20F0BC
:103988000700C21AB5D01B1AA350B2E7A342626857
:10399800DED13A60EDE723466468B1E70C46496832
:1039A800B8E71346CEE70C233360304600F00EF834
:1039B8009EE70560DDE75B60FFDE00BF980400203E
:1039C800014800F045B800BFD8050020014800F0C4
:1039D80040B800BFD805002002440346934200D1F6
:1039E800704703F8011BF9E738B5064D0023044674
:1039F80008462B60FFF786FB431C02D12B6803B1F6
:103A0800236038BDD405002070B50D4D0D4C641BE6
:103A1800A4100026A64209D10B4D0C4C00F020FA48
:103A2800641BA4100026A64205D170BD55F8043BBE
:103A380098470136EEE755F8043B98470136F2E718
:103A4800AC450008AC450008AC450008C445000872
:103A5800704770470A44914200F1FF3300D1704724
:103A680010B511F8014B03F8014F9142F9D110BD7F
:103A780038B50546002941D051F8043C0C1F002BED
:103A8800B8BFE418FFF79CFF1D4A136833B9636099
:103A980014602846BDE83840FFF798BFA34208D90C
:103AA800206821188B4201BF19685B6809182160DA
:103AB800EDE71A465B680BB1A342FAD911685018B2
:103AC800A0420BD120680144501883421160E0D114
:103AD80018685B68536008441060DAE702D90C2361
:103AE8002B60D6E7206821188B4204BF19685B68F1
:103AF800636004BF091821605460CAE738BD00BF7D
:103B08009804002008B5062000F02CF80120FFF7E3
:103B180017FB1F2938B505460C4604D91623036040
:103B28004FF0FF3038BDC26B12B152F821304BB99B
:103B3800284600F031F8224601462846BDE83840BC
:103B480000F018B8012B0AD0591C03D116230360C2
:103B58000120E7E7002142F824102046984700207A
:103B6800E0E70000024B01461868FFF7D2BF00BF2C
:103B78003C00002038B5074D00230446084611468E
:103B88002B60FFF7DFFA431C02D12B6803B12360D7
:103B980038BD00BFD4050020FFF7DCBA2DE9F04797
:103BA800089D0C46002B4ED194468C458646B2FAA9
:103BB80082F262D94AB1C2F12003914020FA03F39C
:103BC8000CFA02FC194300FA02FE4FEA1C471FFADE
:103BD8008CF6B1FBF7F44FEA1E4307FB141143EAD6
:103BE800014304FB06F199420AD91CEB030304F1D3
:103BF800FF3080F01381994240F21081023C634407
:103C0800591A1FFA8EF3B1FBF7F007FB101143EABC
:103C1800014300FB06F69E420AD91CEB030300F1A0
:103C2800FF3180F0FD809E4240F2FA806344023802
:103C38009B1B40EA044000211DB1D3400022C5E986
:103C48000032BDE8F0878B4205D90DB1C5E9000106
:103C580000210846F5E7B3FA83F1002946D1A342CB
:103C680002D39042C0F0F180861A64EB030301206E
:103C7800002DE6D0C5E90063E3E7002A40F0918013
:103C8800A1EB0C044FEA1C481FFA8CF70121B4FB86
:103C9800F8F64FEA1E4308FB164443EA044307FBC1
:103CA80006F0984208D91CEB030306F1FF3402D250
:103CB800984200F2CE8026461C1A1FFA8EF3B4FBF7
:103CC800F8F008FB104443EA044300FB07F79F425F
:103CD80008D91CEB030300F1FF3402D29F4200F223
:103CE800B1802046DB1B40EA0640A5E7C1F120066B
:103CF8008B4022FA06F71F4320FA06FC04FA01F368
:103D080043EA0C03F44000FA01F8380C4FEA13496F
:103D1800B4FBF0FE1FFA87FC00FB1E4449EA04448A
:103D28000EFB0CF9A14502FA01F20AD93C190EF171
:103D3800FF3A80F08580A14540F28280AEF1020E04
:103D48003C44A4EB09041FFA83F9B4FBF0F300FB2D
:103D5800134449EA044403FB0CFCA44507D93C1965
:103D680003F1FF3068D2A44566D9023B3C4443EADC
:103D78000E40A0FB0293A4EB0C049C42CE469C464A
:103D880052D34FD055B1B8EB0E0364EB0C0404FAD0
:103D980006F6CB40CC401E43C5E900640021BDE8CF
:103DA800F087C2F1200320FA03F10CFA02FC24FA8E
:103DB80003F394400C434FEA1C4800FA02FE1FFA32
:103DC8008CF7B3FBF8F008FB1031230C43EA0143EE
:103DD80000FB07F1994208D91CEB030300F1FF36F9
:103DE8002CD299422AD9023863445B1AA4B2B3FB95
:103DF800F8F108FB113344EA034401FB07F3A3423B
:103E080008D91CEB040401F1FF3613D2A34211D9DF
:103E180002396444E41A41EA004138E70446EFE60F
:103E2800084605E7C845ADD2B9EB020E63EB070CAF
:103E38000138A7E73146EDE7034698E73046D4E76F
:103E4800D6467EE7634402384CE7064623460846D2
:103E58000EE7023E63442FE708B5FFF753FE000064
:103E6800F8B500BFF8BC08BC9E467047F8B500BF5F
:083E7800F8BC08BC9E4670472F
:103E800002010403020408100100100000010010E8
:103E900004004000000400000100000002000000D7
:103EA00004000000080000001000000020000000D6
:103EB000400000008000000000010000000200003F
:103EC00000040000000800000010000000200000B6
:103ED0000040000000800000000000000102030418
:103EE00000000000000000000102030406070809AA
:103EF0000000000000440040120700000B0000001A
:103F000000100140120700001D00000000480040A2
:103F100012070000330000000044004012070000B8
:103F20003B0000000048004012070000FFFFFFFFB9
:103F300000000000000000000100000000440040FC
:103F4000120700000C0000000010014012070000E2
:103F50001E0000000048004012070000340000006E
:103F600000440040120700003C00000000480040F0
:103F700012070000FFFFFFFF00000000000000002C
:103F800001000000004C0040120800000300000087
:103F900000440040120700000A0000000010014029
:103FA0001207000017000000001001401207000077
:103FB0001B0000000048004012070000270000001E
:103FC00000140140120800002B000000004C0040CB
:103FD000120800002B0100000048004012070000FA
:103FE00032000000005000401208000036000000BF
:103FF0000044004012070000390000000048004063
:1040000012070000FFFFFFFF00000000000000009B
:1040100000000000004C00401208000002000000F8
:104020000044004012070000090000000010014099
:1040300012070000160000000010014012070000E7
:104040001A0000000048004012070000260000008F
:1040500000140140120800002A000000004C00403B
:10406000120800002A01000000480040120700006A
:104070002C00000000500040120800003500000035
:1040800000440040120700003800000000480040D3
:1040900012070000FFFFFFFF00000000000000000B
:1040A000000000000000004012810000000100003C
:1040B000000C0040128200000100000000000040DF
:1040C0001201010001010000000C00401202010079
:1040D0000200000000000040128101000201000007
:1040E000000C00401282010002020000004001406A
:1040F00012830000030000000000004012010200D3
:1041000003010000000C0040120202000302000044
:1041100000400140120301000500000000000040C3
:10412000128100000501000000040140128310000C
:10413000060000000004004012820000060100009A
:10414000001C004012890000070000000000014030
:10415000128110000701000000040040120201005B
:104160000702000000040140128310000703000052
:1041700000200040128900000800000000000140FB
:10418000128100000900000000000140120101003E
:104190000A00000000000140128101000B00000035
:1041A00000000140120102000F000000000000406A
:1041B00012810000100000000000014012011100F7
:1041C00010010000000400401282010010020000F3
:1041D0000004014012031100110000000000014022
:1041E00012811100110100000004004012020200BF
:1041F00011020000000401401283110013000000AE
:104200000000004012010100140000000004004002
:10421000128200001500000000040040120201009C
:104220001600000000080040128200001700000085
:1042300000080040120201001800000000080040C1
:1042400012820100180100000044014012830000A6
:1042500019000000000800401202020019010000CD
:1042600000480140128300001A00000000000040D6
:10427000128101001B00000000000040120102003A
:104280001D00000000000140128110001E0000000F
:1042900000000140120111001E0100000004014055
:1042A000120311001E0200000018004012890000D5
:1042B0001F00000000000140128111001F010000DA
:1042C00000040140128311001F020000001800408A
:1042D00012090100260000000004004012820000C4
:1042E00026010000000401401283000027000000A6
:1042F00000040040120201002701000000040140F8
:104300001203010028000000000400401282010096
:104310002801000000040140128301002900000070
:1043200000040040120202002901000000040140C4
:10433000120302003C00000000080040128200004E
:104340003D00000000080040120201003E00000095
:1043500000080040128201003F00000000080040F9
:1043600012020200450000000040014012830000DC
:104370004600000000400140120301004800000018
:1043800000000140128110004900000000000140BF
:10439000128100004A0000000000014012011100DB
:1043A0004B00000000000140120101004C00000021
:1043B00000000140128111004D000000000001408A
:1043C000128101004E0000000000014012010200B5
:1043D000FFFFFFFF000000000000000004000000DD
:1043E00000740040038000000500000000740040DD
:1043F00003000100FFFFFFFF0000000000000000BD
:104400002C0000002D0000002E0000002F000000F6
:1044100030000000310000003200000033000000D6
:1044200034000000350000003600000037000000B6
:1044300038000000390000003A0000003B00000096
:1044400041000000400000001900000018000000BA
:104450001700000016000000150000001300000007
:104460003700000036000000350000003400000076
:104470003300000032000000310000003000000076
:104480002C0000002B0000002A0000000F0000009C
:104490000C0000000B0000000A00000009000000F2
:1044A000080000002900000028000000270000008C
:1044B000260000003F0000003E0000003D0000001C
:1044C0003C0000003B0000003A0000003900000002
:1044D000380000001F000000420000004300000000
:1044E0004400000045000000460000002D000000D0
:1044F0002000000021000000220000002300000036
:1045000000000000010000000200000003000000A5
:104510000400000005000000240000002500000049
:10452000100000001100000006000000070000005D
:104530004700000048000000490000004A00000059
:104540004B0000004C0000004D0000004E00000039
:104550004F0000001A0000001B0000001C000000BB
:104560001D0000001E0000001400000006000700EF
:104570000800000000000000000000005D3200089C
:104580000D330008413200081532000817320008C8
:10459000A1350008273200080F3600083136000820
:0445A000F1330008EB
:0845A40000F6FF7F010000009A
:1045AC0075360008E101000851020008ED0400080E
:0845BC0049230008D135000875
:0C45C400BD010008FD04000821240008CF
:1045D000FF01000010000000000002400004024043
:1045E00000080240000C024000100240001402408B
:1045F00000180240001C024000200240003002402F
:10460000000000000024F400E0050020400000202D
:10461000000000009C040020040500206C05002020
:10462000000000000000000000000000000000008A
:10463000000000000000000000000000000000007A
:10464000000000000000000000000000000000006A
:0C4650000000000000000000000000005E
:040000050800369920
:00000001FF
